:100000000C942A000C943C000C943C000C943C0092
:100010000C943C000C943C000C943C000C943C0070
:100020000C943C000C943C000C943C000C943C0060
:100030000C943E040C943C000C943C000C943C004A
:100040000C943C000C943C000C943C000C943C0040
:100050000C943C0011241FBECFE5D8E0DEBFCDBF1D
:1000600010E0A0E6B0E001C01D92A436B107E1F7B0
:100070000E9493040C94BC040C940000DF93CF9373
:10008000CDB7DEB728970FB6F894DEBF0FBECDBF51
:100090008A836B834C8319828B81883008F0F4C08B
:1000A0008C81882309F077C08A81282F30E0388737
:1000B0002F838F8198858130910559F12F81388563
:1000C000223031052CF48F819885009769F060C04B
:1000D0002F8138852230310589F18F8198858330D1
:1000E000910509F440C054C0AAE3B0E0EAE3F0E0AF
:1000F0008081482F8B81282F30E081E090E0022E14
:1001000002C0880F991F0A94E2F7809584238C938C
:10011000BDC0A7E3B0E0E7E3F0E08081482F8B812A
:10012000282F30E081E090E0022E02C0880F991F56
:100130000A94E2F7809584238C93A8C0A4E3B0E0EE
:10014000E4E3F0E08081482F8B81282F30E081E0CC
:1001500090E0022E02C0880F991F0A94E2F7809562
:1001600084238C9393C0A1E3B0E0E1E3F0E08081CD
:10017000482F8B81282F30E081E090E0022E02C0D2
:10018000880F991F0A94E2F7809584238C937EC090
:1001900081E089837BC08C81813009F072C08A81C3
:1001A000282F30E03E832D838D819E818130910503
:1001B00049F12D813E81223031052CF48D819E81C3
:1001C000009761F05BC02D813E812230310571F1D5
:1001D0008D819E8183309105E9F150C0AAE3B0E0A2
:1001E000EAE3F0E08081482F8B81282F30E081E026
:1001F00090E0022E02C0880F991F0A94E2F7842B28
:100200008C9344C0A7E3B0E0E7E3F0E08081482F9F
:100210008B81282F30E081E090E0022E02C0880F11
:10022000991F0A94E2F7842B8C9330C0A4E3B0E0CA
:10023000E4E3F0E08081482F8B81282F30E081E0DB
:1002400090E0022E02C0880F991F0A94E2F7842BD7
:100250008C931CC0A1E3B0E0E1E3F0E08081482F83
:100260008B81282F30E081E090E0022E02C0880FC1
:10027000991F0A94E2F7842B8C9308C081E089834C
:1002800005C081E0898302C081E089838981289645
:100290000FB6F894DEBF0FBECDBFCF91DF910895AA
:1002A000DF93CF9300D000D00F92CDB7DEB78A8313
:1002B0006B8319828A81282F30E03D832C838C81C7
:1002C0009D8181309105D1F02C813D812230310515
:1002D0002CF48C819D81009761F01FC02C813D81A1
:1002E0002230310581F08C819D818330910581F030
:1002F00014C0EAE3F0E08B81808311C0E7E3F0E013
:100300008B8180830CC0E4E3F0E08B81808307C0A5
:10031000E1E3F0E08B81808302C081E08983898101
:100320000F900F900F900F900F90CF91DF91089545
:10033000DF93CF93CDB7DEB728970FB6F894DEBF23
:100340000FBECDBF8A836B834C8319828B8188302B
:1003500008F0F4C08C81882309F077C08A81282FA7
:1003600030E038872F838F8198858130910559F14E
:100370002F813885223031052CF48F8198850097A4
:1003800069F060C02F8138852230310589F18F8175
:1003900098858330910509F440C054C0ABE3B0E0C8
:1003A000EBE3F0E08081482F8B81282F30E081E063
:1003B00090E0022E02C0880F991F0A94E2F7809500
:1003C00084238C93BDC0A8E3B0E0E8E3F0E0808133
:1003D000482F8B81282F30E081E090E0022E02C070
:1003E000880F991F0A94E2F7809584238C93A8C004
:1003F000A5E3B0E0E5E3F0E08081482F8B81282F72
:1004000030E081E090E0022E02C0880F991F0A942C
:10041000E2F7809584238C9393C0A2E3B0E0E2E3FB
:10042000F0E08081482F8B81282F30E081E090E040
:10043000022E02C0880F991F0A94E2F78095842348
:100440008C937EC081E089837BC08C81813009F0F0
:1004500072C08A81282F30E03E832D838D819E815A
:100460008130910549F12D813E81223031052CF4F6
:100470008D819E81009761F05BC02D813E8122308D
:10048000310571F18D819E8183309105E9F150C074
:10049000ABE3B0E0EBE3F0E08081482F8B81282FC5
:1004A00030E081E090E0022E02C0880F991F0A948C
:1004B000E2F7842B8C9344C0A8E3B0E0E8E3F0E0DB
:1004C0008081482F8B81282F30E081E090E0022E40
:1004D00002C0880F991F0A94E2F7842B8C9330C0D6
:1004E000A5E3B0E0E5E3F0E08081482F8B81282F81
:1004F00030E081E090E0022E02C0880F991F0A943C
:10050000E2F7842B8C931CC0A2E3B0E0E2E3F0E0BE
:100510008081482F8B81282F30E081E090E0022EEF
:1005200002C0880F991F0A94E2F7842B8C9308C0AD
:1005300081E0898305C081E0898302C081E08983ED
:10054000898128960FB6F894DEBF0FBECDBFCF913C
:10055000DF910895DF93CF9300D000D00F92CDB7F5
:10056000DEB78A836B8319828A81282F30E03D832E
:100570002C838C819D8181309105D1F02C813D812E
:10058000223031052CF48C819D81009761F01FC0D1
:100590002C813D812230310581F08C819D81833019
:1005A000910581F014C0EBE3F0E08B81808311C0F2
:1005B000E8E3F0E08B8180830CC0E5E3F0E08B8121
:1005C000808307C0E2E3F0E08B81808302C081E09A
:1005D000898389810F900F900F900F900F90CF918A
:1005E000DF910895DF93CF93CDB7DEB727970FB68E
:1005F000F894DEBF0FBECDBF8A836B835D834C83CF
:1006000019828C819D81009709F478C08B81883094
:1006100008F074C08A81282F30E03F832E834E81FA
:100620005F814130510559F18E819F818230910562
:1006300034F42E813F812115310569F05CC04E8173
:100640005F814230510579F18E819F818330910520
:1006500009F43DC050C0E9E3F0E08081282F30E08C
:100660008B81882F90E0A90102C0559547958A9506
:10067000E2F7CA018170EC81FD81808341C0E6E32D
:10068000F0E08081282F30E08B81882F90E0A90155
:1006900002C0559547958A95E2F7CA018170EC81B1
:1006A000FD8180832DC0E3E3F0E08081282F30E0DE
:1006B0008B81882F90E0A90102C0559547958A95B6
:1006C000E2F7CA018170EC81FD81808319C0E0E30B
:1006D000F0E08081282F30E08B81882F90E0A90105
:1006E00002C0559547958A95E2F7CA018170EC8161
:1006F000FD81808305C081E0898302C081E0898318
:10070000898127960FB6F894DEBF0FBECDBFCF917B
:10071000DF910895DF93CF93CDB7DEB7ADE2B0E0C0
:10072000EDE2F0E0808180618C93ADE2B0E0EDE23B
:10073000F0E08081877F8C93ADE2B0E0EDE2F0E005
:1007400080818B7F8C93ADE2B0E0EDE2F0E08081C0
:1007500080628C93AEE2B0E0EEE2F0E080818E7FCA
:100760008C93ADE2B0E0EDE2F0E080818D7F8C9380
:10077000ADE2B0E0EDE2F0E0808181608C93ADE22B
:10078000B0E0EDE2F0E0808180648C93CF91DF9166
:100790000895DF93CF93CDB7DEB7ADE2B0E0EDE2E1
:1007A000F0E080818F7E8C93ADE2B0E0EDE2F0E08E
:1007B000808180648C93CF91DF910895DF93CF93F4
:1007C00000D000D00F92CDB7DEB78B837D836C83D2
:1007D0001A821982EFE2F0E08B818083EEE2F0E092
:1007E0008081881F8827881F813021F089818F5F51
:1007F0008983F4CFEFE2F0E08081EC81FD8180839A
:100800008A810F900F900F900F900F90CF91DF91F2
:100810000895DF93CF9300D000D000D0CDB7DEB7DE
:100820008A837C836B835E834D8319828D819E8155
:100830000097C1F08D819E8190936100809360004C
:100840008B819C819093630080936200EFE2F0E0E3
:100850008A818083ADE2B0E0EDE2F0E080818068E3
:100860008C9302C082E08983898126960FB6F89422
:10087000DEBF0FBECDBFCF91DF9108951F920F92C3
:100880000FB60F9211242F933F934F935F936F9363
:100890007F938F939F93AF93BF93EF93FF93DF93D8
:1008A000CF93CDB7DEB78091600090916100009743
:1008B000A1F0A0916200B0916300EFE2F0E08081CE
:1008C0008C93E0916000F09161000995ADE2B0E099
:1008D000EDE2F0E080818F778C93CF91DF91FF91F3
:1008E000EF91BF91AF919F918F917F916F915F91A8
:1008F0004F913F912F910F900FBE0F901F90189521
:10090000DF93CF930F92CDB7DEB71982898191E043
:100910008927898380E060E049810E9498010F90D7
:10092000CF91DF910895DF93CF9300D0CDB7DEB79D
:1009300081E065E040E00E943E0081E066E041E049
:100940000E943E0081E064E040E00E943E0081E0C1
:1009500067E040E00E943E0080E060E041E00E94ED
:100960003E000E94C90329813A8140E854E080E0BA
:0C097000B9010E940904F7CFF894FFCFF2
:00000001FF
