:100000000C942A000C949C040C94CF040C940205CC
:100010000C943C000C943C000C943C000C943C0070
:100020000C943C000C943C000C943C000C943C0060
:100030000C943C000C943C000C943C000C943C0050
:100040000C943C000C943C000C943C000C943C0040
:100050000C943C0011241FBECFE5D8E0DEBFCDBF1D
:1000600010E0A0E6B0E001C01D92A636B107E1F7AE
:100070000E9451050C9479050C940000DF93CF93F6
:10008000CDB7DEB728970FB6F894DEBF0FBECDBF51
:100090008A836B834C8319828B81883008F0F4C08B
:1000A0008C81882309F077C08A81282F30E0388737
:1000B0002F838F8198858130910559F12F81388563
:1000C000223031052CF48F819885009769F060C04B
:1000D0002F8138852230310589F18F8198858330D1
:1000E000910509F440C054C0AAE3B0E0EAE3F0E0AF
:1000F0008081482F8B81282F30E081E090E0022E14
:1001000002C0880F991F0A94E2F7809584238C938C
:10011000BDC0A7E3B0E0E7E3F0E08081482F8B812A
:10012000282F30E081E090E0022E02C0880F991F56
:100130000A94E2F7809584238C93A8C0A4E3B0E0EE
:10014000E4E3F0E08081482F8B81282F30E081E0CC
:1001500090E0022E02C0880F991F0A94E2F7809562
:1001600084238C9393C0A1E3B0E0E1E3F0E08081CD
:10017000482F8B81282F30E081E090E0022E02C0D2
:10018000880F991F0A94E2F7809584238C937EC090
:1001900081E089837BC08C81813009F072C08A81C3
:1001A000282F30E03E832D838D819E818130910503
:1001B00049F12D813E81223031052CF48D819E81C3
:1001C000009761F05BC02D813E812230310571F1D5
:1001D0008D819E8183309105E9F150C0AAE3B0E0A2
:1001E000EAE3F0E08081482F8B81282F30E081E026
:1001F00090E0022E02C0880F991F0A94E2F7842B28
:100200008C9344C0A7E3B0E0E7E3F0E08081482F9F
:100210008B81282F30E081E090E0022E02C0880F11
:10022000991F0A94E2F7842B8C9330C0A4E3B0E0CA
:10023000E4E3F0E08081482F8B81282F30E081E0DB
:1002400090E0022E02C0880F991F0A94E2F7842BD7
:100250008C931CC0A1E3B0E0E1E3F0E08081482F83
:100260008B81282F30E081E090E0022E02C0880FC1
:10027000991F0A94E2F7842B8C9308C081E089834C
:1002800005C081E0898302C081E089838981289645
:100290000FB6F894DEBF0FBECDBFCF91DF910895AA
:1002A000DF93CF9300D000D00F92CDB7DEB78A8313
:1002B0006B8319828A81282F30E03D832C838C81C7
:1002C0009D8181309105D1F02C813D812230310515
:1002D0002CF48C819D81009761F01FC02C813D81A1
:1002E0002230310581F08C819D818330910581F030
:1002F00014C0EAE3F0E08B81808311C0E7E3F0E013
:100300008B8180830CC0E4E3F0E08B81808307C0A5
:10031000E1E3F0E08B81808302C081E08983898101
:100320000F900F900F900F900F90CF91DF91089545
:10033000DF93CF93CDB7DEB728970FB6F894DEBF23
:100340000FBECDBF8A836B834C8319828B8188302B
:1003500008F0F4C08C81882309F077C08A81282FA7
:1003600030E038872F838F8198858130910559F14E
:100370002F813885223031052CF48F8198850097A4
:1003800069F060C02F8138852230310589F18F8175
:1003900098858330910509F440C054C0ABE3B0E0C8
:1003A000EBE3F0E08081482F8B81282F30E081E063
:1003B00090E0022E02C0880F991F0A94E2F7809500
:1003C00084238C93BDC0A8E3B0E0E8E3F0E0808133
:1003D000482F8B81282F30E081E090E0022E02C070
:1003E000880F991F0A94E2F7809584238C93A8C004
:1003F000A5E3B0E0E5E3F0E08081482F8B81282F72
:1004000030E081E090E0022E02C0880F991F0A942C
:10041000E2F7809584238C9393C0A2E3B0E0E2E3FB
:10042000F0E08081482F8B81282F30E081E090E040
:10043000022E02C0880F991F0A94E2F78095842348
:100440008C937EC081E089837BC08C81813009F0F0
:1004500072C08A81282F30E03E832D838D819E815A
:100460008130910549F12D813E81223031052CF4F6
:100470008D819E81009761F05BC02D813E8122308D
:10048000310571F18D819E8183309105E9F150C074
:10049000ABE3B0E0EBE3F0E08081482F8B81282FC5
:1004A00030E081E090E0022E02C0880F991F0A948C
:1004B000E2F7842B8C9344C0A8E3B0E0E8E3F0E0DB
:1004C0008081482F8B81282F30E081E090E0022E40
:1004D00002C0880F991F0A94E2F7842B8C9330C0D6
:1004E000A5E3B0E0E5E3F0E08081482F8B81282F81
:1004F00030E081E090E0022E02C0880F991F0A943C
:10050000E2F7842B8C931CC0A2E3B0E0E2E3F0E0BE
:100510008081482F8B81282F30E081E090E0022EEF
:1005200002C0880F991F0A94E2F7842B8C9308C0AD
:1005300081E0898305C081E0898302C081E08983ED
:10054000898128960FB6F894DEBF0FBECDBFCF913C
:10055000DF910895DF93CF9300D000D00F92CDB7F5
:10056000DEB78A836B8319828A81282F30E03D832E
:100570002C838C819D8181309105D1F02C813D812E
:10058000223031052CF48C819D81009761F01FC0D1
:100590002C813D812230310581F08C819D81833019
:1005A000910581F014C0EBE3F0E08B81808311C0F2
:1005B000E8E3F0E08B8180830CC0E5E3F0E08B8121
:1005C000808307C0E2E3F0E08B81808302C081E09A
:1005D000898389810F900F900F900F900F90CF918A
:1005E000DF910895DF93CF93CDB7DEB727970FB68E
:1005F000F894DEBF0FBECDBF8A836B835D834C83CF
:1006000019828C819D81009709F478C08B81883094
:1006100008F074C08A81282F30E03F832E834E81FA
:100620005F814130510559F18E819F818230910562
:1006300034F42E813F812115310569F05CC04E8173
:100640005F814230510579F18E819F818330910520
:1006500009F43DC050C0E9E3F0E08081282F30E08C
:100660008B81882F90E0A90102C0559547958A9506
:10067000E2F7CA018170EC81FD81808341C0E6E32D
:10068000F0E08081282F30E08B81882F90E0A90155
:1006900002C0559547958A95E2F7CA018170EC81B1
:1006A000FD8180832DC0E3E3F0E08081282F30E0DE
:1006B0008B81882F90E0A90102C0559547958A95B6
:1006C000E2F7CA018170EC81FD81808319C0E0E30B
:1006D000F0E08081282F30E08B81882F90E0A90105
:1006E00002C0559547958A95E2F7CA018170EC8161
:1006F000FD81808305C081E0898302C081E0898318
:10070000898127960FB6F894DEBF0FBECDBFCF917B
:10071000DF910895DF93CF93CDB7DEB7A5E5B0E0C5
:10072000E5E5F0E0808182608C93A5E5B0E0E5E549
:10073000F0E080818E7F8C93ABE5B0E0EBE5F0E0FC
:10074000808180648C93CF91DF910895DF93CF9364
:10075000CDB7DEB7A5E5B0E0E5E5F0E080818860E3
:100760008C93A5E5B0E0E5E5F0E080818B7F8C938C
:10077000ABE5B0E0EBE5F0E0808180688C93CF9151
:10078000DF910895DF93CF93CDB7DEB7A4E5B0E056
:10079000E4E5F0E080818F7B8C93ABE5B0E0EBE5A6
:1007A000F0E0808180628C93CF91DF910895DF9398
:1007B000CF9300D000D0CDB7DEB78A8319828A816B
:1007C000282F30E03C832B838B819C8182309105E4
:1007D00029F12B813C812330310534F48B819C81BC
:1007E0008130910561F047C02B813C812330310578
:1007F00021F18B819C818430910571F13CC0A5E58C
:10080000B0E0E5E5F0E080818E7F8C93A5E5B0E077
:10081000E5E5F0E080818D7F8C932FC0A5E5B0E009
:10082000E5E5F0E0808181608C93A5E5B0E0E5E549
:10083000F0E080818D7F8C9320C0A5E5B0E0E5E5F8
:10084000F0E0808182608C93A5E5B0E0E5E5F0E022
:1008500080818E7F8C9311C0A5E5B0E0E5E5F0E0E6
:10086000808182608C93A5E5B0E0E5E5F0E08081D1
:1008700081608C9302C081E0898389810F900F9001
:100880000F900F90CF91DF910895DF93CF9300D019
:100890000F92CDB7DEB79B838A8319828A819B81B1
:1008A000009739F08A819B8190936100809360006A
:1008B00002C082E0898389810F900F900F90CF91C1
:1008C000DF910895DF93CF9300D00F92CDB7DEB7BD
:1008D0009B838A8319828A819B81009739F08A8160
:1008E0009B81909363008093620002C082E08983C1
:1008F00089810F900F900F90CF91DF910895DF9332
:10090000CF9300D00F92CDB7DEB79B838A83198235
:100910008A819B81009739F08A819B819093650041
:100920008093640002C082E0898389810F900F90D8
:100930000F90CF91DF9108951F920F920FB60F92F3
:1009400011242F933F934F935F936F937F938F93D4
:100950009F93AF93BF93EF93FF93DF93CF93CDB765
:10096000DEB78091600090916100009729F0E091DE
:100970006000F09161000995CF91DF91FF91EF91B7
:10098000BF91AF919F918F917F916F915F914F91A7
:100990003F912F910F900FBE0F901F9018951F92AF
:1009A0000F920FB60F9211242F933F934F935F93A3
:1009B0006F937F938F939F93AF93BF93EF93FF9327
:1009C000DF93CF93CDB7DEB7809162009091630043
:1009D000009729F0E0916200F09163000995CF91B2
:1009E000DF91FF91EF91BF91AF919F918F917F9197
:1009F0006F915F914F913F912F910F900FBE0F908C
:100A00001F9018951F920F920FB60F9211242F93DB
:100A10003F934F935F936F937F938F939F93AF9386
:100A2000BF93EF93FF93DF93CF93CDB7DEB7809162
:100A3000640090916500009729F0E0916400F091C6
:100A400065000995CF91DF91FF91EF91BF91AF9133
:100A50009F918F917F916F915F914F913F912F91D6
:100A60000F900FBE0F901F901895DF93CF93CDB7C7
:100A7000DEB7AFE5B0E0EFE5F0E0808180688C9311
:100A8000CF91DF910895DF93CF93CDB7DEB7AFE578
:100A9000B0E0EFE5F0E080818F778C93CF91DF912C
:100AA0000895DF93CF93CDB7DEB783E063E040E0F6
:100AB0000E943E0083E063E041E00E94980180E0F4
:100AC00060E041E00E943E000E94A6038DE695E0B2
:100AD0000E9462040E943505FFCFDF93CF93CDB70C
:100AE000DEB780E060E041E00E949801CF91DF91A5
:060AF0000895F894FFCF09
:00000001FF
