:100000000C942A000C9447000C9447000C94470071
:100010000C9447000C9447000C9447000C94470044
:100020000C9447000C9447000C9447000C94470034
:100030000C9447000C9404050C9447000C9437056D
:100040000C9447000C9447000C9447000C94470014
:100050000C94470011241FBECFE5D8E0DEBFCDBF12
:1000600010E0A0E6B0E0E2E0FCE002C005900D92F6
:10007000A636B107D9F710E0A6E6B0E001C01D92A0
:10008000AA36B107E1F70E946A050C94FF050C94AB
:100090000000DF93CF93CDB7DEB728970FB6F89463
:1000A000DEBF0FBECDBF8A836B834C8319828B81E9
:1000B000883008F0F4C08C81882309F077C08A81E9
:1000C000282F30E038872F838F81988581309105E4
:1000D00059F12F813885223031052CF48F81988594
:1000E000009769F060C02F8138852230310589F191
:1000F0008F8198858330910509F440C054C0AAE3EC
:10010000B0E0EAE3F0E08081482F8B81282F30E0D7
:1001100081E090E0022E02C0880F991F0A94E2F756
:10012000809584238C93BDC0A7E3B0E0E7E3F0E0C3
:100130008081482F8B81282F30E081E090E0022ED3
:1001400002C0880F991F0A94E2F7809584238C934C
:10015000A8C0A4E3B0E0E4E3F0E08081482F8B8105
:10016000282F30E081E090E0022E02C0880F991F16
:100170000A94E2F7809584238C9393C0A1E3B0E0C6
:10018000E1E3F0E08081482F8B81282F30E081E08F
:1001900090E0022E02C0880F991F0A94E2F7809522
:1001A00084238C937EC081E089837BC08C818130E5
:1001B00009F072C08A81282F30E03E832D838D8123
:1001C0009E818130910549F12D813E81223031059A
:1001D0002CF48D819E81009761F05BC02D813E8162
:1001E0002230310571F18D819E8183309105E9F1D5
:1001F00050C0AAE3B0E0EAE3F0E08081482F8B81B1
:10020000282F30E081E090E0022E02C0880F991F75
:100210000A94E2F7842B8C9344C0A7E3B0E0E7E3B1
:10022000F0E08081482F8B81282F30E081E090E042
:10023000022E02C0880F991F0A94E2F7842B8C9338
:1002400030C0A4E3B0E0E4E3F0E08081482F8B818C
:10025000282F30E081E090E0022E02C0880F991F25
:100260000A94E2F7842B8C931CC0A1E3B0E0E1E395
:10027000F0E08081482F8B81282F30E081E090E0F2
:10028000022E02C0880F991F0A94E2F7842B8C93E8
:1002900008C081E0898305C081E0898302C081E0D4
:1002A0008983898128960FB6F894DEBF0FBECDBF33
:1002B000CF91DF910895DF93CF9300D000D00F92BC
:1002C000CDB7DEB78A836B8319828A81282F30E00D
:1002D0003D832C838C819D8181309105D1F02C81CF
:1002E0003D81223031052CF48C819D81009761F095
:1002F0001FC02C813D812230310581F08C819D8190
:100300008330910581F014C0EAE3F0E08B818083B3
:1003100011C0E7E3F0E08B8180830CC0E4E3F0E000
:100320008B81808307C0E1E3F0E08B81808302C092
:1003300081E0898389810F900F900F900F900F902B
:10034000CF91DF910895DF93CF93CDB7DEB7289794
:100350000FB6F894DEBF0FBECDBF8A836B834C838C
:1003600019828B81883008F0F4C08C81882309F0D1
:1003700077C08A81282F30E038872F838F81988536
:100380008130910559F12F813885223031052CF4C7
:100390008F819885009769F060C02F813885223061
:1003A000310589F18F8198858330910509F440C02A
:1003B00054C0ABE3B0E0EBE3F0E08081482F8B81E9
:1003C000282F30E081E090E0022E02C0880F991FB4
:1003D0000A94E2F7809584238C93BDC0A8E3B0E033
:1003E000E8E3F0E08081482F8B81282F30E081E026
:1003F00090E0022E02C0880F991F0A94E2F78095C0
:1004000084238C93A8C0A5E3B0E0E5E3F0E080810D
:10041000482F8B81282F30E081E090E0022E02C02F
:10042000880F991F0A94E2F7809584238C9393C0D8
:10043000A2E3B0E0E2E3F0E08081482F8B81282F37
:1004400030E081E090E0022E02C0880F991F0A94EC
:10045000E2F7809584238C937EC081E089837BC002
:100460008C81813009F072C08A81282F30E03E8370
:100470002D838D819E818130910549F12D813E81B1
:10048000223031052CF48D819E81009761F05BC094
:100490002D813E812230310571F18D819E81833025
:1004A0009105E9F150C0ABE3B0E0EBE3F0E080810F
:1004B000482F8B81282F30E081E090E0022E02C08F
:1004C000880F991F0A94E2F7842B8C9344C0A8E309
:1004D000B0E0E8E3F0E08081482F8B81282F30E006
:1004E00081E090E0022E02C0880F991F0A94E2F783
:1004F000842B8C9330C0A5E3B0E0E5E3F0E080818D
:10050000482F8B81282F30E081E090E0022E02C03E
:10051000880F991F0A94E2F7842B8C931CC0A2E3E6
:10052000B0E0E2E3F0E08081482F8B81282F30E0BB
:1005300081E090E0022E02C0880F991F0A94E2F732
:10054000842B8C9308C081E0898305C081E0898376
:1005500002C081E08983898128960FB6F894DEBFB6
:100560000FBECDBFCF91DF910895DF93CF9300D021
:1005700000D00F92CDB7DEB78A836B8319828A8150
:10058000282F30E03D832C838C819D818130910523
:10059000D1F02C813D81223031052CF48C819D815C
:1005A000009761F01FC02C813D812230310581F020
:1005B0008C819D818330910581F014C0EBE3F0E0E4
:1005C0008B81808311C0E8E3F0E08B8180830CC0D5
:1005D000E5E3F0E08B81808307C0E2E3F0E08B810C
:1005E000808302C081E0898389810F900F900F90F2
:1005F0000F900F90CF91DF910895DF93CF93CDB7F8
:10060000DEB727970FB6F894DEBF0FBECDBF8A8343
:100610006B835D834C8319828C819D81009709F4E3
:1006200078C08B81883008F074C08A81282F30E030
:100630003F832E834E815F814130510559F18E8178
:100640009F818230910534F42E813F81211531053F
:1006500069F05CC04E815F814230510579F18E8135
:100660009F818330910509F43DC050C0E9E3F0E07B
:100670008081282F30E08B81882F90E0A90102C073
:10068000559547958A95E2F7CA018170EC81FD8105
:10069000808341C0E6E3F0E08081282F30E08B8149
:1006A000882F90E0A90102C0559547958A95E2F7F9
:1006B000CA018170EC81FD8180832DC0E3E3F0E00D
:1006C0008081282F30E08B81882F90E0A90102C023
:1006D000559547958A95E2F7CA018170EC81FD81B5
:1006E000808319C0E0E3F0E08081282F30E08B8127
:1006F000882F90E0A90102C0559547958A95E2F7A9
:10070000CA018170EC81FD81808305C081E089830D
:1007100002C081E08983898127960FB6F894DEBFF5
:100720000FBECDBFCF91DF910895DF93CF93CDB7AB
:10073000DEB7AFE5B0E0EFE5F0E0808180688C9354
:10074000CF91DF910895DF93CF93CDB7DEB7AFE5BB
:10075000B0E0EFE5F0E080818F778C93CF91DF916F
:100760000895DF93CF93CDB7DEB72B970FB6F894EC
:10077000DEBF0FBECDBF9D838C83EC81FD81808168
:100780009181CC01A0E0B0E0880F991FAA1FBB1F88
:10079000880F991FAA1FBB1F880F991FAA1FBB1F75
:1007A000880F991FAA1FBB1F9C01AD0180E092E139
:1007B000AAE7B0E0BC01CD010E94DD05DA01C90164
:1007C00001979B838A831982E0E4F0E08A819B8110
:1007D000892F99278083E9E2F0E08A8180838981EB
:1007E00080688983EC81FD818281282F30E03B87FE
:1007F0002A878A859B8586309105E9F02A853B8585
:100800002730310534F48A859B858530910561F068
:1008100026C02A853B8527303105A1F08A859B8536
:1008200088309105B1F01BC089818D7F89838981D2
:100830008B7F898314C089818260898389818B7FC2
:1008400089830DC089818D7F8983898184608983B3
:1008500006C0898182608983898184608983EC8173
:10086000FD818381282F30E0398728878885998505
:100870008130910531F0288539852230310529F004
:1008800007C08981877F898303C0898188608983C4
:10089000EC81FD818481282F30E03F832E838E817F
:1008A0009F818130910581F02E813F812230310579
:1008B00091F08E819F810097A1F489818F7E898339
:1008C00089818F7D89830DC089818F7E898389810C
:1008D0008062898306C08981806189838981806281
:1008E0008983E0E4F0E089818083EAE2F0E088E156
:1008F00080832B960FB6F894DEBF0FBECDBFCF918D
:10090000DF910895DF93CF930F92CDB7DEB7898340
:10091000EBE2F0E08081829586958770882F90E0E9
:10092000817090700097A1F3ECE2F0E08981808300
:100930000F90CF91DF910895DF93CF93CDB7DEB7BE
:10094000EBE2F0E08081881F8827881F8130C1F7A3
:10095000ECE2F0E08081CF91DF910895DF93CF93B7
:10096000CDB7DEB7AAE2B0E0EAE2F0E080818068CD
:100970008C93CF91DF910895DF93CF93CDB7DEB7FE
:10098000AAE2B0E0EAE2F0E0808180648C93CF914B
:10099000DF910895DF93CF9300D00F92CDB7DEB7EC
:1009A0009B838A8319828A819B81009739F08A818F
:1009B0009B81909367008093660002C082E08983E8
:1009C00089810F900F900F90CF91DF910895DF9361
:1009D000CF9300D00F92CDB7DEB79B838A83198265
:1009E0008A819B81009739F08A819B81909369006D
:1009F0008093680002C082E0898389810F900F9004
:100A00000F90CF91DF9108951F920F920FB60F9222
:100A100011242F933F934F935F936F937F938F9303
:100A20009F93AF93BF93EF93FF93DF93CF93CDB794
:100A3000DEB78091660090916700009729F0E09101
:100A40006600F09167000995CF91DF91FF91EF91DA
:100A5000BF91AF919F918F917F916F915F914F91D6
:100A60003F912F910F900FBE0F901F9018951F92DE
:100A70000F920FB60F9211242F933F934F935F93D2
:100A80006F937F938F939F93AF93BF93EF93FF9356
:100A9000DF93CF93CDB7DEB7809168009091690066
:100AA000009729F0E0916800F09169000995CF91D5
:100AB000DF91FF91EF91BF91AF919F918F917F91C6
:100AC0006F915F914F913F912F910F900FBE0F90BB
:100AD0001F901895DF93CF93CDB7DEB72A970FB647
:100AE000F894DEBF0FBECDBF83E060E040E00E941F
:100AF000490083E061E041E00E94490080E060E05D
:100B000041E00E944900CE0101969F838E83E0E67A
:100B1000F0E0F987E887F5E0FA87E885F985008055
:100B200088859985019699878887EE81FF81008263
:100B30008E819F8101969F838E839A8591509A879B
:100B4000EA85EE2351F7CE0101960E94B1030E947F
:100B5000BC040E94AE040E94950380EC95E00E94C4
:100B6000CA0486EB95E00E94E704F7CFDF93CF93AA
:100B7000CDB7DEB784E40E948204CF91DF9108955F
:100B8000DF93CF930F92CDB7DEB70E949C04898389
:100B90008981813331F480E060E041E00E94A3016B
:100BA00008C08981823329F480E060E040E00E943F
:100BB000A3010F90CF91DF910895A1E21A2EAA1BF5
:100BC000BB1BFD010DC0AA1FBB1FEE1FFF1FA217FD
:100BD000B307E407F50720F0A21BB30BE40BF50BFA
:100BE000661F771F881F991F1A9469F76095709583
:100BF000809590959B01AC01BD01CF010895F894BB
:020C0000FFCF24
:060C02008025080200003D
:00000001FF
